:020000040800F2
:10000000D8E3002069020008C7170008931300080E
:10001000C5170008CD050008111B000800000000EE
:100020000000000000000000000000007D1A000831
:10003000CF05000800000000C91700087F1A00085B
:10004000830200088302000883020008830200087C
:10005000830200088302000883020008830200086C
:10006000830200088302000883020008830200085C
:10007000830200088302000883020008830200084C
:10008000830200088302000883020008830200083C
:10009000830200088302000883020008830200082C
:1000A000830200088302000883020008830200081C
:1000B000830200088302000883020008830200080C
:1000C00083020008830200088302000883020008FC
:1000D00083020008830200088302000883020008EC
:1000E00083020008830200088302000883020008DC
:1000F00083020008830200088302000883020008CC
:1001000083020008830200088302000883020008BB
:1001100083020008830200088302000883020008AB
:10012000830200088302000883020008830200089B
:10013000830200088302000883020008830200088B
:10014000830200088302000883020008830200087B
:10015000830200088302000883020008830200086B
:10016000830200088302000883020008830200085B
:100170008302000883020008000000000000000065
:10018000830200088302000800F002F800F05CF827
:100190000AA090E8000C82448344AAF10107DA45E2
:1001A00001D100F051F8AFF2090EBAE80F0013F0D8
:1001B000010F18BFFB1A43F001031847CC8402005B
:1001C000EC8402000A444FF0000C10F8013B13F0DD
:1001D000070408BF10F8014B1D1108BF10F8015BA0
:1001E000641E05D010F8016B641E01F8016BF9D193
:1001F00013F0080F1EBF10F8014BAD1C0C1B09D1EA
:100200006D1E58BF01F801CBFAD505E014F8016B5B
:1002100001F8016B6D1EF9D59142D6D370470000ED
:100220000023002400250026103A28BF78C1FBD8FF
:10023000520728BF30C148BF0B6070471FB523F07D
:10024000B2FE1FBD10B510BD00F08DF91146FFF7CD
:10025000F5FF1FF029F800F0ABF903B4FFF7F2FF48
:1002600003BC00F079F900000948804709480047BD
:10027000FEE7FEE7FEE7FEE7FEE7FEE7FEE7FEE756
:10028000FEE7FEE704480549054A064B70470000B3
:10029000FD1A000889010008D8DD0020D8E30020FD
:1002A000D8DF0020D8DF002053EA020C00F069807C
:1002B0002DE9F04B4FF00006002B1FBFB3FA83F57A
:1002C00003FA05F424FA05F65E4012BF1643B2FAAB
:1002D00082F502FA05F4C5F120051EBF22FA05FCDD
:1002E00044EA0C04203556EA044C4FEA144418BF83
:1002F000641C4FF000084FF00009904271EB030CB2
:1003000039D3002919BFB1FA81F701FA07F6B0FA1B
:1003100080F700FA07F6C7F120071EBF20FA07FC96
:1003200046EA0C062037B6FBF4FCA7EB0507103FA6
:1003300007F01F0BCBF120060CFA0BFB2CFA06F68C
:1003400044BFB3460026202FA4BF5E464FF0000BEB
:100350005BEA060C08BF4FF0010B19EB0B09ABFB76
:10036000027C48EB0608C01B06FB02CC0BFB03CC4F
:1003700071EB0C01C1E70B46024641464846BDE819
:10038000F08B13B54FF000004FF00001AFF3008089
:10039000BDE81C40704740EA0103024630B59B07A8
:1003A00010D14FF0013400E008C208C91D1B9D4365
:1003B00015EAC41FF8D013F0FF0102F8011B0DD09D
:1003C0001B0AF8E711F8013B002B02F8013B05D0AE
:1003D00011F8013B002B02F8013BF3D130BD10B501
:1003E000431C02E010F8011B71B18107FAD14FF0F4
:1003F000013202C88C1A8C4314EAC211F9D0C01A17
:100400000A0603D0C01E10BDC01A10BD0A0401D0D8
:10041000801E10BD0902FCD0401E10BD10B5203A50
:10042000C0F00B80B1E81850203AA0E81850B1E8AD
:100430001850A0E81850BFF4F5AF5FEA027C24BF63
:10044000B1E81850A0E8185044BF18C918C0BDE85A
:1004500010405FEA827C24BF51F8043B40F8043B23
:1004600008BF7047D20728BF31F8023B48BF11F8D8
:10047000012B28BF20F8023B48BF00F8012B704732
:100480004FF0000200B5134694469646203922BF2D
:10049000A0E80C50A0E80C50B1F12001BFF4F7AF78
:1004A000090728BFA0E80C5048BF0CC05DF804EB5A
:1004B000890028BF40F8042B08BF704748BF20F8C8
:1004C000022B11F0804F18BF00F8012B704700007D
:1004D0004FF0013C50F8042B51F8043B9A4221D1D3
:1004E000A2EB0C03934313EACC1317D150F8042B5F
:1004F00051F8043B9A4215D1A2EB0C03934313EA43
:10050000CC130BD150F8042B51F8043B9A4209D17B
:10051000A2EB0C03934313EACC13DBD04FF00000A3
:10052000704700BFD01A01BAB1FA81F101F0180189
:1005300022FA01F0CB40C1F12001DBB2C0B2C01AF7
:100540002CFA01F3D11A914311EAC311E6D1704795
:10055000704770477047000001491820ABBEFEE7A6
:10056000260002007047754600F02CF8AE460500E4
:100570006946534620F00700854618B020B5FFF7BE
:1005800081FEBDE820404FF000064FF000074FF01D
:1005900000084FF0000B21F00701AC46ACE8C009A1
:1005A000ACE8C009ACE8C009ACE8C0098D467047AA
:1005B00010B50446AFF300802046BDE81040FFF7B9
:1005C0004CBE00000048704774DD0020FEE7704715
:1005D0002DE9F04FDFF8EC9100220127A9F1040B7F
:1005E00085B003254FF00F0C09F1040AABF1040E9E
:1005F000E0E000BF07FA02F416EA04037ED00E79A9
:1006000006F00306012E01D0022E1FD18668009647
:10061000560005FA06F80496009E26EA080600969B
:10062000D1F80C80049E08FA06F8009E48EA0608F5
:10063000C0F80880466891F80480A643C8F3001803
:1006400008FA02F848EA0608C0F80480D1F80480E5
:100650006FEA0806B6070AD1C66AA643C8F3C00403
:1006600094403443C4620C79E443A4070AD0C468BC
:100670004FEA420805FA08F6B4438E6806FA08F60F
:100680002643C6600C7904F00304022C11D1D4086F
:1006900000EB84060296D6F820805407E60E0CFA8A
:1006A00006F428EA04080C69B440029E44EA0804EF
:1006B000346204685600029605FA06F6B4430E79D1
:1006C00006F00308029E08FA06F848EA0408C0F893
:1006D00000804C6814F4403F6BD03B4C266E46F0D3
:1006E00001062666246E22F0030604F0010400943D
:1006F000364C34440294A468960700E059E04FEA6F
:1007000016780CFA08F6B443B0F1904F04D0304E8E
:10071000B04203D101261BE0002619E02D4EB04265
:1007200001D1022614E02C4EB04201D103260FE085
:100730002A4EB04201D104260AE0294EB04201D12E
:10074000052605E0274EB04201D1062600E0072627
:1007500006FA08F62643029CA660D9F800404E46E9
:10076000D1F804809C435FEAC82800D51C4334605C
:10077000DAF800405646D1F804809C435FEA8828A6
:1007800000D51C433460DBF800405E46D1F804809D
:100790009C435FEA883800D51C433460DEF8004093
:1007A0007646D1F804809C435FEAC83800D51C43E4
:1007B0003460521C0B681E46D3407FF41BAF05B05B
:1007C00000F012B80804014000100240000001408F
:1007D0000004004800080048000C004800100048D1
:1007E000001400480018004830BCBDE8C08F0AB1B2
:1007F00081617047816270470148806870470000DE
:10080000000000200248816802781144816070472E
:100810000000002010B50024032000F063F80F2032
:1008200000F008F808B1012401E000F025F82046A6
:1008300010BD000070B50E4E05460024307898B10A
:100840004FF47A71B1FBF0F00A490968B1FBF0F09E
:1008500000F08BFD40B9102D06D200222946501E13
:1008600000F020F8756000E00124204670BD000013
:10087000000000200C000020094808B5016E41F07E
:1008800001010166016E01F001010091816D41F0ED
:1008900080518165806D00F08050009008BD00009F
:1008A00000100240F0B40E4B1B680C46C3F3022349
:1008B000C3F10705042D00D90425191D072901D20C
:1008C000002300E0DB1E012606FA05F1491E214047
:1008D00099409E40761E16403143F0BC01F019B994
:1008E0000CED00E0064900F0070208684FF6FF0330
:1008F000184040EA0220034A104308607047000095
:100900000CED00E00000FA051649B0F5007F08681C
:10091000C0F3412009D0022805D0086820F4C06047
:1009200040F480600860002070470128FBD0086810
:1009300020F4C06040F4007008600B483222006868
:1009400050430A4AB0FBF2F0401C00E0401E4A69E6
:10095000520501D50028F9D148694005E3D50320A7
:1009600070470000007000400C00002040420F0063
:100970000248006800F4C06070470000007000404A
:100980002DE9F0470F4605006BD0494E306800F066
:100990000700B84209D2306820F0070038433060C1
:1009A000306800F00700B8425BD12878414C8007DE
:1009B0000AD5A868A16801F0F001884204D9A168AD
:1009C00021F0F0010143A1602878C0072CD06868AD
:1009D000032811D0022812D0216898B149050029B6
:1009E0003FDAA16821F003010143A160FFF704FF92
:1009F000804641F2883910E021688901EFE72168DB
:100A00008903ECE78907EAE7FFF7F6FEA0EB0801A8
:100A1000494502D90320BDE8F087A068696800F065
:100A20000C00B0EB810FEFD1287880070AD5A868B9
:100A3000A16801F0F001884204D2A16821F0F00120
:100A40000143A160306800F00700B8420BD930685C
:100A500020F0070038433060306800F00700B842EB
:100A600001D00120D7E72878400705D5A068E968BC
:100A700020F4E0600843A0602878000706D5A0684D
:100A8000296920F4605040EAC100A06000F01AF823
:100A9000A168094AC1F30311515C01F01F01C8406C
:100AA0000649086006480068BDE8F047FFF7C2BE87
:100AB0000020024000100240B03F02080C0000205D
:100AC0000400002070B52549002318468A68CC68C8
:100AD00012F00C0204F00306214C4FEA640509D021
:100AE0000C2A05D0042A32D0082A00D1284670BD2D
:100AF000012E10D10B681B0704D4D1F89430C3F336
:100B0000032302E00B68C3F30313164E56F8233099
:100B1000DAB10C2AEBD1C86800F00300022818D023
:100B2000032818D01846CA68CB68C2F30212C3F370
:100B300006234343521CB3FBF2F2C868C0F3416082
:100B4000401C4000B2FBF0F070BD184670BD20465E
:100B500070BD2046E7E72846E5E7000000100240A8
:100B60000024F400C03F02082DE9F84304006FD0D0
:100B7000FD4DA86800F00C06E86800F00307207837
:100B8000C00664D576B10C2E01D1012F0AD0A06920
:100B9000002828687AD040F001002860FFF72CFE7A
:100BA00080465DE02868800702D5A0690028DED075
:100BB000216A2868000703D5286800F0F00004E0E7
:100BC000D5F89400F02202EA1010814216D90846A6
:100BD00000F0FCFD00283BD1286840F008002860A8
:100BE0002868216A20F0F000084328606868E169FD
:100BF00020F47F4040EA0120686016E0286840F059
:100C0000080028602868216A20F0F0000843286066
:100C10006868E16920F47F4040EA0120686026B9F5
:100C2000206A00F0D3FD0028D5D1FFF74BFFA9685B
:100C3000CE4AC1F30311515C01F01F01C840CC49F9
:100C40000860CC480068FFF7F5FD00287ED12EE053
:100C5000CAE000BFFFF7D0FDA0EB0800022876D85D
:100C600028688007F6D5286840F0080028602868C2
:100C7000216A20F0F000084328606868E16920F4E8
:100C80007F4040EA0120686011E0FFE720F00100AA
:100C90002860FFF7B1FD804606E000BFFFF7ACFD1E
:100CA000A0EB08000228DAD828688007F6D420785C
:100CB000C00740D0082E18D00C2E01D1032F14D01D
:100CC0006068B0F5803F17D0B0F5A02F286817D026
:100CD00020F480302860286820F480202860606834
:100CE000E0B1FFF789FD804614E02868800322D533
:100CF0006068002878D01EE0286840F48030EDE776
:100D000040F480202860F7E7FFF776FDA0EB0800AD
:100D10006428A4D828688003F6D50CE0FFF76CFDA2
:100D2000804605E0FFF768FDA0EB0800642896D830
:100D300028688003F6D4207880073BD5042E11D094
:100D40000C2E01D1022F0DD0E06801E086E1D6E043
:100D5000002828681ED040F480702860FFF74CFD02
:100D600007460CE0286840050CD5E0680028C1D093
:100D700008E000BFFFF740FDC01B022893D8286899
:100D80004005F7D56868217C20F0F85040EA016002
:100D900068600FE020F480702860FFF72DFD0746A3
:100DA00005E000BFFFF728FDC01B0228B1D8286866
:100DB0004005F7D42078000729D560690028D5F8C8
:100DC000940012D040F00100C5F89400FFF714FD24
:100DD000074604E0FFF710FDC01B022899D8D5F89C
:100DE00094008007F6D512E000E120F00100C5F87C
:100DF0009400FFF701FD074605E000BFFFF7FCFC8C
:100E0000C01B02287BD8D5F894008007F6D4207840
:100E1000400766D5A86D0027C00008D4A86D40F033
:100E20008050A865A86D012700F0805000905248BE
:100E30000168C90512D40168814641F480710160DE
:100E4000FFF7DAFC804605E0FFF7D6FCA0EB0800D0
:100E5000022854D8D9F80000C005F5D5A0680128AB
:100E600016D00528D5F8900017D020F00100C5F85D
:100E70009000D5F8900020F0040000BFC5F8900065
:100E8000A06841F28839C0B1FFF7B6FC80460FE098
:100E9000D5F8900040F00100F0E740F00400C5F8FC
:100EA0009000F5E7FFF7A8FCA0EB0801494526D81C
:100EB000D5F890008007F5D50EE0FFF79DFC804641
:100EC00006E000BFFFF798FCA0EB0801494516D8E3
:100ED000D5F890008007F5D41FB1A86D20F08050A0
:100EE000A865A06AF0B302280AD00C2E7ED028682C
:100EF00020F080702860FFF77FFC0446B0E0ACE093
:100F0000E868E26A00F00301914229D1216B00F008
:100F1000700209011039914222D1626B00F4FE4146
:100F2000B1EB022F1CD1A26B00F40031072A01D0D3
:100F3000012200E00022914212D1A18F00F4C002F0
:100F400049084905A1F50011914209D194F84010D2
:100F500000F0C06049084906A1F1007181425ED0ED
:100F60000C2E0BE072E0000000100240B03F0208BF
:100F70000C000020040000200070004079D0286898
:100F8000400176D42868C00073D4286820F08070AF
:100F90002860FFF731FC064605E000BFFFF72CFC98
:100FA000801B022859D828688001F7D4D4E90B01A6
:100FB0006FF00F0202EB01110843A18F52044908A0
:100FC00002EB4151626B41EA0221084394F8401060
:100FD0004FF07E42490802EB41610843A16B0909C9
:100FE00040EA4140E968244A114000E041E00843FA
:100FF000E860286840F080702860E86840F0807001
:10100000E860FFF7F9FB044605E000BFFFF7F4FBDB
:10101000001B022821D828688001F7D527E028681E
:10102000800124D4286840F080702860E86840F08F
:101030008070E860FFF7E0FB044604E0FFF7DCFBAC
:10104000001B022809D828688001F7D50FE000BFEF
:10105000FFF7D2FB001B022802D90320BDE8F8836A
:1010600028688001F4D4E86804490840E86000205A
:10107000F4E70120F2E700008C809DF9FCFFEEFE12
:1010800070B5040009D0606A002540B12561656132
:10109000A56294F85D0040B10CE0012070BD60686D
:1010A000B0F5827FF4D0E561F2E784F85C50204629
:1010B00000F056F8022084F85D002068016821F0F5
:1010C00040010160E1684FF4E062914201D90020E3
:1010D00001E04FF48050B1F5706F02D0914200D022
:1010E000A562A188228901F4827102F404421143AD
:1010F000227C02F002021143227D02F00102114320
:10110000228B02F400721143227F02F03802114355
:1011100094F8202002F080021143228D02F4005244
:10112000114322681160A169042202EA114194F876
:10113000242000F4805002F01002114394F834206F
:1011400002F008021143A28902F4706211430143C4
:10115000206841602566012084F85D00002070BD94
:1011600010B586B0044614216846FFF789F9124984
:10117000206888421ED11148016E41F480510166F9
:10118000016E01F480510591C16C41F00201C1640E
:10119000C06C694600F002000590282000900220F3
:1011A0000190002002900320039005200490044841
:1011B000FFF70EFA06B010BD0030014000100240EB
:1011C000000400482DE9F84F044690F85C00002721
:1011D0001D461646894601280DD04FF0010B84F8B4
:1011E0005CB0FFF709FB804694F85D00BA46012821
:1011F00004D00227A4E0022000F0A8B8B9F1000F43
:1012000074D0002E72D0032084F85D00C4F860A072
:10121000C4F83890A687E687C4F840A0A4F844A094
:10122000A4F846A0C4F850A0C4F84CA0A068B0F53B
:10123000004F09D12068016821F040010160206859
:10124000016841F48041016020680168490603D4C7
:10125000016841F040010160E068B0F5E06F60684E
:1012600023D908B1012E1CD1A06B21680088C86069
:1012700006E020688168890709D5A16B0988C160EB
:10128000A06B801CA063E08F401EE08709E0FFF7A1
:10129000B3FAA0EB0800A84202D3681C01D046E0D4
:1012A000ADB3E08F0028E4D136E008B1012E30D193
:1012B000E08F0128A06B03D921680088C8600FE087
:1012C00021680078087314E0E08722E020688168D4
:1012D000890714D5E18F0129A16B08D90988C1605C
:1012E000A06B801CA063E08F801EEDE727E00978EB
:1012F0000173A06B401CA063E08F401EE4E7FFF782
:101300007BFAA0EB0800A84202D3681C01D00EE0D3
:101310006DB1E08F0028D9D142462946204600F021
:1013200093FA08B120202066A06810B105E00327D9
:1013300006E02068C16880680090206E00B1012737
:1013400084F85DB084F85CA0384655E718BCBDE869
:10135000E08F4FF0E0210428086903D020F004005A
:101360000861704740F00400FAE710B5401EB0F184
:10137000807F01D3012010BD4FF0E02460610F2178
:10138000601700F0C6FB0020A0610720206100204C
:1013900010BDFEE72DE9F04107461C4615460E46F6
:1013A0002A2000F045F9380A00F050F9F8B200F0B0
:1013B0004DF9280A00F04AF9E8B200F047F92B206D
:1013C00000F036F9300A00F041F9F0B200F03EF9D1
:1013D000200A00F03BF9E0B200F038F9BDE8F04136
:1013E0002C2000F025B9000070B5040AC5B2EF2327
:1013F00000211A460846FFF7CDFF0F4900204FF4A1
:10140000107200BF01F8104001EB4003401C80B295
:101410005D709042F6D3012210210848FFF7E7F9EA
:1014200000244FF490652946034800F031FA641C0B
:10143000A4B2642CF7D370BD8002002000040048E1
:1014400010B514460B460246FFF7A4FF2046BDE840
:10145000104000F009B9000010B500228021724848
:10146000FFF7C5F9714C002280212046FFF7BFF934
:10147000002240212046FFF7BAF9782003F00CFE45
:10148000012240212046FFF7B2F9782003F004FE44
:10149000782003F001FE112000F0CAF8782003F054
:1014A000FBFD362000F0C4F8002000F0CFF83A2011
:1014B00000F0BEF8652000F0C9F8B22000F0B8F8DE
:1014C0000C2000F0C3F80C2000F0C0F8002000F061
:1014D000BDF8332000F0BAF8332000F0B7F8B72099
:1014E00000F0A6F8722000F0B1F8BB2000F0A0F8E0
:1014F0003D2000F0ABF8C02000F09AF82C2000F05E
:10150000A5F8C22000F094F8012000F09FF8C32055
:1015100000F08EF8192000F099F8C42000F088F847
:10152000202000F093F8C62000F082F80F2000F091
:101530008DF8D02000F07CF8A42000F087F8A120DE
:1015400000F084F8E02000F073F8D02000F07EF87E
:10155000042000F07BF80D2000F078F8112000F056
:1015600075F8132000F072F82B2000F06FF83F2080
:1015700000F06CF8542000F069F84C2000F066F898
:10158000182000F063F80D2000F060F80B2000F048
:101590005DF81F2000F05AF8232000F057F8E120F2
:1015A00000F046F8D02000F051F8042000F04EF88A
:1015B0000C2000F04BF8112000F048F8132000F048
:1015C00045F82C2000F042F83F2000F03FF844207E
:1015D00000F03CF8512000F039F82F2000F036F8E8
:1015E0001F2000F033F81F2000F030F8202000F01A
:1015F0002DF8232000F02AF8212000F019F82920E6
:1016000000F016F8EF2300211A460846FFF7C2FE45
:101610004FF6FF70FFF7E8FE20460122BDE81040BC
:101620008021FFF7E4B80000000C004800040048E7
:1016300001B5002210210448FFF7D9F801216846BE
:1016400000F026F908BD00000004004801B50122A1
:1016500010210448FFF7CBF80121684600F018F983
:1016600008BD00000004004808B5010A8DF800100C
:101670008DF80100012210210348FFF7B8F802217C
:10168000684600F005F908BD0004004810B514F0E4
:101690006DFDBDE810401AF031BE00002DE9F041AB
:1016A00086B014216846FEF7EBFE2E48C16C41F06F
:1016B0000401C164C16C01F004010591C16C41F0E9
:1016C0008001C164C16C01F080010591C16C41F0E1
:1016D0001001C164C16C01F010010591C16C41F0B1
:1016E0000801C164C16C01F008010591C16C41F0B1
:1016F0000201C164C06C1C4E00F002004FF4007483
:101700000590002221463046FFF771F8174F00225E
:1017100080213846FFF76BF8DFF854800022D02193
:101720004046FFF764F80125CDE900450024029406
:10173000694630460394FEF74BFF80200090CDE9C8
:101740000154694638460394FEF742FFD0200090CA
:10175000CDE90154694640460394FEF739FF06B0CF
:10176000BDE8F0810010024000100048000C004865
:1017700000040048124810B5104901604FF482710E
:1017800041604FF4004181604FF4E061C16002218B
:10179000016101214161490281610021C161016250
:1017A00007224162C0E90A1201634163FFF768FC46
:1017B000002801D072B6FEE710BD000000300140E5
:1017C0001C020020FEE7FEE770470000F8B51C4D44
:1017D00006460024A86DC00002D5FFF7C9F80DE049
:1017E000A86D40F08050A865A86D00F08050009072
:1017F000FFF7BEF8A96D21F08051A965B0F5007F13
:1018000004D0802E07D94FF003040AE0802E08D9B7
:10181000A02E01D804E001D1022402E0702E00D1F4
:1018200001240848016821F0070121430160006894
:1018300000F00700A04201D00120F8BD0020F8BD53
:101840000010024000200240F8B515460E460B4637
:101850000092044600224FF4C05100F03FF888B9CE
:101860003346002280212046009500F0ABF848B9AD
:10187000334600224FF4C0612046009500F02EF858
:10188000002804D0206E40F0200020660320F8BD20
:101890002DE9F0474FF6FF75B1FBF5F70E46804690
:1018A00000244FF47A7912E008D1B6FBF5F005FB7D
:1018B0001062C4EB044141444B4604E0C4EB0441D4
:1018C00041444B462A460448FFF77CFC641CBC425A
:1018D000EAD9BDE8F08700001C0200202DE9FE4F88
:1018E0004FF0000A984617460E4604460C9D8DF8A8
:1018F00004A0FEF781FF411BA8EB0105FEF77CFF6A
:10190000814620684FF4C06B0C3002902A48006872
:10191000C0EBC00000EB8000000D6843009043E086
:101920005E4506D12FB9029800788DF804009DF825
:101930000400B8F1FF3F37D0FEF75EFFA0EB0900CF
:10194000A84203D215B1009858B32BE02068416833
:1019500021F0E00141606068B0F5827F0BD1A068A2
:10196000B0F5004F02D0B0F5806F04D12068016857
:1019700021F040010160A06AB0F5005F09D1206844
:10198000016821F4005101602068016841F40051B0
:101990000160012084F85D0084F85CA0032000F061
:1019A0000DB80025401E0090206880683040B84285
:1019B000B6D10020F3E700000C0000201EBCBDE8FB
:1019C000E08F00002DE9F8431E4691468846044604
:1019D000089DFEF711FF401B351AFEF70DFF074665
:1019E00025480068C0F3CB30684338E0701C37D01E
:1019F000FEF702FFC01BA84203D215B1009860B3E6
:101A00002CE02068416821F0E00141606068B0F599
:101A1000827F0BD1A068B0F5004F02D0B0F5806F87
:101A200004D12068016821F040010160A06AB0F58E
:101A3000005F09D12068016821F40051016020682D
:101A4000016841F400510160012084F85D0000202C
:101A500084F85C000320BDE8F8830025401E009058
:101A60002068816838EA010004D000214945BDD1D1
:101A70000020F0E70121F9E70C000020704710B5C5
:101A800001201CF00DFFBDE81040FEF7BBBE10B5F5
:101A900096B044216846FEF7F3FC142111A8FEF726
:101AA000EFFC4FF40070FEF72FFF08B172B6FEE7AF
:101AB00001210804CDE90010022003240A90CDE999
:101AC0000B4114210D910721CDE90E1010906846AD
:101AD000FFF74AF808B172B6FEE70F20CDE911040E
:101AE0000020139014901590042111A8FEF748FFD0
:101AF000002801D072B6FEE716B010BD024801689A
:101B000041F470010160704788ED00E012F072BF8F
:101B1000FEE70907090E002804DB00F1E02080F849
:101B20000014704700F00F0000F1E02080F8141D51
:101B3000704770B5044600256FF02F0608E0206856
:101B4000411C2160007805EB850106EB4101451839
:101B50002068007800F004F80028F0D1284670BD15
:101B60003038092801D80120704700207047000054
:101B700010B54421074800F0D5FB00221E2106487D
:101B80001CF0E8FE054CA06001F082FC00202070F3
:101B900010BD00007C0800204535000880010020B1
:101BA00070B5B1F90030B2F90040A34200DC234621
:101BB0000380B1F90250B2F90240A54200DD2C4683
:101BC0004480B1F90460B2F90450AE4200DA3546FF
:101BD0008580B1F90610B2F90620914200DB11466A
:101BE000C1800120AB4201DC8C4200DD002070BDD1
:101BF000F8B50D460446B0F90000B1F900101646DC
:101C0000884247DBB4F90210B5F90220914241DB6A
:101C1000B4F90410B5F9042091423BDCB4F9061084
:101C2000B5F90620914235DC96B3ADF80000608826
:101C3000ADF8020032466946284600F099F80028BF
:101C400027D0A088ADF800006088ADF802003246C9
:101C50006946284600F08CF800281AD02088ADF894
:101C60000000E088ADF8020032466946284600F0E0
:101C70007FF800280DD0A088ADF80000E088ADF80E
:101C8000020032466946284600F072F8002800D06B
:101C90000120F8BD0020F8BDB0F90020B1F90430F2
:101CA0009A4213DCB0F90420B1F900309A420DDBFE
:101CB000B0F90220B1F906309A4207DCB0F906000B
:101CC000B1F90210884201DB012070470020704703
:101CD000F8B50D460446B0F90400B1F900101646F7
:101CE000884243DBB4F90600B5F9021088423DDBB7
:101CF000B4F90000B5F90410884237DCB4F90210D9
:101D0000B5F90620914231DC76B3ADF80000608869
:101D1000ADF8020032466946284600F029F818BBA3
:101D2000A088ADF800006088ADF802003246694630
:101D3000284600F01DF8B8B92088ADF80000E0880A
:101D4000ADF8020032466946284600F011F858B94D
:101D5000A088ADF80000E088ADF802003246694680
:101D6000284600F005F808B10020F8BD0120F8BDB4
:101D70002DE9FC4114460E46B1F90020B0F90010DF
:101D800005468A423ADBB5F90400824236DCB6F9F0
:101D90000270B5F90220974230DBB5F906309F4258
:101DA0002CDC002C75DD401A9A1A401C521C00B223
:101DB00012B200EBD07002EBD2724010521090427F
:101DC00000DB1046844200DD0446ADF80010288890
:101DD00000222044ADF804006888ADF8020068884D
:101DE00031462044ADF806006846FFF7C1FF40B118
:101DF000BDF804002044ADF804003FE00020BDE839
:101E0000FC81E8880022001BADF80200E888ADF8EC
:101E1000060031466846FFF7ABFF28B1BDF8040065
:101E20002044ADF8040011E0A8880022001BADF8A2
:101E30000000A888ADF8040031466846FFF798FF17
:101E400050B1BDF80000001BADF80000BDF8020065
:101E5000001BADF8020016E06888ADF80200688843
:101E600000222044ADF8060031466846FFF780FFA7
:101E700070B1BDF80000001BADF80000BDF8060011
:101E80002044ADF80600314668461AF01AFAB6E763
:101E9000FFE70120B3E710B5B1F90040B2F9003017
:101EA0009C4200DA23460380B1F90240B2F90230C5
:101EB0009C4200DA23464380B1F90440B2F9043071
:101EC0009C4200DD23468380B1F90610B2F906205A
:101ED000914200DC1146C18010BD0000F8B50746F4
:101EE0001CF0D4FC0025264C0646009537B1F86856
:101EF000606038461CF0FCFD606802E00FF062FC98
:101F0000606000691AF0D6F86068406908B11AF09C
:101F1000D1F86068C0691AF0CDF86068006A1AF0FC
:101F2000C9F86068016941B31AF05EFA1EF00AFA56
:101F30006068B0F85011C1B14FF48071303015F0C5
:101F4000CBFD6068202100F5987015F0C5FD606834
:101F5000A0F8505130461CF093FC00906068006877
:101F6000436A13B122680099984715F033FC00F0DA
:101F700035F8BDE8F84000F005B8A0F85051F8BDBC
:101F80004000002070B50A4D002400BFC4EBC40619
:101F900055F8260008B115F091FC05EB86001C21D0
:101FA00015F09AFD641CE4B2042CEFD370BD000060
:101FB00058090020084949680AE04A68824202D06C
:101FC0000A68824203D10A7E42F001020A76496918
:101FD0000029F2D170470000140000207047000073
:101FE0000421014800F09EB970080020202101481A
:101FF00000F098B9880800202DE9FF410446DDE98A
:102000000A671D004FF0000002D1B6F5807F2BD08B
:10201000039001900290ADF80C100090ADF8041000
:10202000ADF80A20ADF80E203B46324629466846F8
:102030001AF0A4F83B463246294601A81AF09EF849
:102040003B463246294602A81AF098F83B463246EB
:10205000294603A81AF092F8BDF90000BDF9043032
:10206000984209DA054608E02080491E6080A18078
:10207000521EE28000F075B81D46BDF90820BDF97A
:102080000C108A4201DA164600E00E46B54203DA29
:10209000984206DB184604E08A4201DA104600E066
:1020A0000846801E2080BDF90030BDF9042093420F
:1020B00001DD1D4600E01546BDF90800BDF90C1014
:1020C000884201DD064600E00E46B54205DD93423A
:1020D00001DD194604E0114602E0884200DD0146B8
:1020E000891CA180BDF90230BDF90620934201DAB6
:1020F0001D4600E01546BDF90A00BDF90E108842E4
:1021000001DA064600E00E46B54205DA934201DAEE
:10211000194604E0114602E0884200DA0146891EB1
:102120006180BDF90230BDF90620934201DD1D46F4
:1021300000E01546BDF90A00BDF90E10884201DD28
:10214000064600E00E46B54205DD934201DD194624
:1021500004E0114602E0884200DD0146891CE1806E
:1021600088E703BCBDE8FC812DE9F04115460E4629
:102170000746114C1CF08AFB80462B4632463946F6
:10218000204613F0CBFC20B10020A062E06950B1E2
:1021900010E02C21204615F09FFC4FF00040A0627B
:1021A0000020BDE8F08140461CF06AFBE06108B900
:1021B0000120E0612046F4E7AC08002010B51421AE
:1021C000074800F0AFF813F06FFC40B1054901601B
:1021D00005494160054981600549C16010BDFEE7C0
:1021E00094080020B954010841580108C359010856
:1021F000855401087FB50E46040003D10FF0E2FAC2
:1022000004002CD00FF052FB002828D094F82800AE
:10221000400724D4002506B3ADF80050ADF80250B5
:1022200020460FF0E7FA401EADF8040020460FF0FC
:1022300027FB401EADF806006A46314602A8FFF7AC
:10224000AFFC00280BD02068017C890708D5DDE9A8
:102250000001C4E90C01012029E0A4F850517FBD20
:1022600082690AB102A9904700260AE004EBC60180
:10227000002202A83031FFF7BBFC0028EFD1761C0A
:10228000B6B2B4F85001B042F0D880B2202804D2DF
:1022900004EBC00002A9303004E0A4F8505104F16E
:1022A000300069460DF046F8B4F85001401CA4F81F
:1022B000500160680028D2D01CF026FC7FBD70B5AC
:1022C000054600F012F804460CE02146284600F0CE
:1022D0001EF806462146284600F071F8204615F003
:1022E000EDFA3446002CF0D170BD002800D04068D3
:1022F000704700B503460022FFF7F7FF03E01846DA
:10230000521C00F004F80100F9D1104600BD00682D
:10231000091D40587047006840587047002800D099
:102320008068704700224260C91C21F0030182606E
:102330000160704770B504460068083015F032FA45
:10234000050013D00146002220461DF0F1FB29466E
:10235000204662681DF0E6FB616819B12A462046F6
:102360001DF0E6FB6560A06800B9A560284670BD59
:1023700070B504460068083015F014FA050013D053
:102380000146002220461DF0CDFB29462046A268CA
:102390001DF0CEFBA16819B12A4620461DF0C2FBF4
:1023A000A560606800B96560284670BD28B14168C5
:1023B00009B9806808B1002070470120704770B5E6
:1023C00004000DD0FFF791FF00228842204608D17B
:1023D000FFF79DFF6060011E01D000221EE0A26099
:1023E00070BDFFF79BFF8842206808440AD101684E
:1023F000A16029B12046BDE8704000221DF092BBCB
:10240000626070BD05682046FFF781FF0646024600
:10241000294620461DF086FB2A4631462046BDE867
:1024200070401DF085BB10B50446006882680AB193
:102430002146904720680068002801D02060F5E719
:1024400010BD8068002801D0B0F916007047806880
:10245000002801D0807E8009704770B51646054679
:102460000C4651EA06001AD0284616F0A3F8A868D0
:1024700001233246018A21440182A868418A3144FD
:1024800041822146284618F0E9FB00220B2128460C
:1024900012F084FA012803D1284618F038FB0120F5
:1024A00070BD77B581B00E46050017D0612217F0D8
:1024B00077FE040012D0206880B12846314662229F
:1024C00017F06EFE10F0FF0208D023682046039933
:1024D00098470090BDF80000ADF80C00039804B0D8
:1024E00070BD00002DE9F047074692B0408C1A9E5F
:1024F00040F00400788490463A8499468A463289AE
:10250000384617F04DFE0546A7F82090328951460F
:10251000384617F045FE0446788CA54220F00400AA
:10252000788403D12904B1EB044F68D0A7F8208048
:1025300032895146384617F033FE05468046A7F8E3
:102540002090514638460BF0E5F8318900682A465C
:102550001BF0E6F830890B2823D147F6FF794D456B
:1025600001D04C451DD1384617F0E4FF00EBD07088
:102570004510384616F0D1FE00EBD0704010C8452B
:1025800006D1691C431C994200DA00E019468846CE
:102590004C4506D1691C421C914201DA6C1C00E0DA
:1025A00014461948FFF7C6FE05002BD02F60C5E979
:1025B00003843089A8806846C5F808A00CF098F913
:1025C0001248FF21CDE900501148029011480390B4
:1025D00000200890CDE9090130880B9070889DF8A3
:1025E000421040420C90F0680790002060F3000118
:1025F0008DF842103069069068460CF01FFA12B050
:10260000BDE8F087FEE70000A00800203938020886
:10261000213A02087D39020814210148FFF782BEE1
:10262000A00800202DE9F84F00259046894606466F
:102630002C460427E6E000BFF06807EBC4014058D1
:1026400081017CD480B230EA090112D05FF000022F
:1026500030EA08000FD00020824270D0F0686A464D
:10266000102150F8340082461AF0BEFD002871D1C6
:1026700003E00122ECE70120EEE76A461121504613
:102680001AF0B2FD002865D16A46122150461AF0B0
:10269000ABFD00285ED16A46132150461AF0A4FD16
:1026A000002857D16A46152150461AF09DFD002892
:1026B00050D16A46142150461AF096FDF0BB6A4686
:1026C0000A2150461AF090FDC0BB6A466A21504666
:1026D0001AF08AFD90BB6A466B2150461AF084FDC1
:1026E00060BB6A46012150461AF07EFD30BB6A4647
:1026F000042150461AF078FD00BB6A46022150467C
:102700001AF072FDD0B96A46032150461AF06CFDEA
:10271000A0B96A46052150461AF066FD70B96A46AE
:10272000062150461AF060FD40B96A4632215046F3
:102730001AF05AFD10B96A466D2101E00AE060E026
:1027400050461AF051FD28B96A466C2150461AF0DD
:102750004BFD10B1032000F05DB86A466821504679
:102760001AF042FDF0BB6A46692150461AF03CFD62
:10277000C0BB6A466D2150461AF036FD90BB6A46D2
:102780006C2150461AF030FD60BB6A463721504636
:102790001AF02AFD30BB6A46382150461AF024FD53
:1027A00000BB6A46352150461AF01EFDD0B96A4674
:1027B000402150461AF018FDA0B96A4645215046FE
:1027C0001AF012FD70B96A46412150461AF00CFD0C
:1027D00040B96A46422150461AF006FD10B96A46D1
:1027E000432100E009E050461AF0FEFC28B96A4691
:1027F000492150461AF0F8FC08B1022501E005B95C
:102800000125641C708CC0F3C500A0423FF614AFD4
:102810002846A0E718BCBDE8E08F000001484068EA
:1028200070470000400000207047C0F304100728E4
:1028300000D9072070470000A0F57F41FF3905D07F
:10284000002804D0702803D208490AE01F207047EE
:102850000749703880B2096829B1064A5268904227
:1028600001D2085C70470020704700008C7F02088E
:10287000AC010020C001002010B518210348FFF76B
:1028800051FD03490120087010BD00004C080020D4
:10289000C80100202DE9F04190460C46050015D0F6
:1028A000FDF79DFD0A4F06462146BA682846904727
:1028B0000446BA682819414690470146701A03E059
:1028C0006218AA5C2A55641CA042F9D2BDE8F081C6
:1028D000DC0100202DE9F041094D90460E466A6862
:1028E0001C46074619469047306020B120686A6848
:1028F000384400219047C8F80000BDE8F08100008E
:10290000DC0100202DE9F04F87B08A46DDE9105840
:102910001F4693460446002105B129805CB120780A
:10292000002809D0BAF1000F05D0002618F0060FD4
:1029300015D0002004E0002007B000F063B8401C70
:10294000215C0A2904D00D2902D00029F7D100E02A
:10295000401C002DF0D04FF0FF312980ECE75FEAFA
:10296000887001D541F6FF77894608468DF8141026
:10297000049127E00498CDF8189068B34FF0000C4C
:1029800005AA06ABCDF80CC0CDF80080CDE9013228
:1029900020443B465A4651461CF0FAF906997A1AE9
:1029A000314417B20EB288B10499014404912078E1
:1029B0000A280BD00D2809D0605C0A280FD00D28FA
:1029C0000DD00846205C08B1002FD3DC049848B134
:1029D00005B12E800498AFE74FF0010CD0E7481CFA
:1029E0000490F3E7064A04A9204652689047002D58
:1029F000F0D001460022504612F013F906B2E8E783
:102A0000DC01002030BCBDE8C08F00002DE9F041A2
:102A10001746884606001ED0002F1CD0FDF7DFFCAD
:102A200004463846FDF7DBFC050014D00B4A2C4465
:102A30004146926830469047411903E0621BB25C00
:102A40003255641EA142F9D930442A463946BDE8C0
:102A5000F04115F003B8BDE8F0810000DC01002072
:102A600000230278232902D0012A0DD00FE02AB1D9
:102A70000021012A04D0022A04D008E0012101E04B
:102A8000017004E0017001E0202902D00123184602
:102A900070470221F6E72DE9F0410E4680460246D6
:102AA0000021334608461CF0B7FB04460027401CB3
:102AB00014F078FE050008D02F5533464246611CBD
:102AC0001CF0AAFB2846BDE8F081FEE72DE9F0479F
:102AD0001E4614460D468246DDF8209015E000BFE4
:102AE0004FEA540808FB0657394650464A46904775
:102AF000002808DD44F30000C0EB540407EB060592
:102B0000A4F1010401E005DA4446002CE8D1204696
:102B1000BDE8F0873846FBE72DE9FC5F9B460CAB30
:102B20008A468146DDE9116093E81210DDE90F570E
:102B30005FEA80784FF030031AD45EB15FEAC07864
:102B400008D000F00C0858EA0C0803D0761E01E00B
:102B50000B55641CBC4204D2202CF9D301E00B5568
:102B6000641C5FEAC07803D0B44201D2202CF6D3B3
:102B70005FEAC06825D55FEA40580AD44CB1BC4230
:102B800001D0B44205D1641E03D0102D03D1641EC0
:102B900004E0102D02D0022D0AD00EE0850603D4E9
:102BA000202C1ED2782506E0202C1AD2582502E0CF
:102BB000202C16D262250D55641C202C11D20B55E9
:102BC000641C202C0DD2BCF1000F01D02D2306E097
:102BD000430701D52B2302E0030702D520230B5521
:102BE000641CCDE900BAC846154681468B46AA4604
:102BF000800714D1274607E02A46DDE900316D1C25
:102C00002020C446E0477F1CB742F5D307E02A46A0
:102C10006D1C641EDDE900311BF80400C047002C68
:102C2000F5D15FEA897006D409E02A46DDE9003172
:102C30006D1C2020C047A5EB0A00B042F5D3284602
:102C400000F000B83CBCBDE8C09F2DE9F04F8FB04C
:102C500099468B46DDE91818DDE91C63DDE91A4762
:102C600092468646002209B923F01003580507ADA5
:102C700000D5C9B1B1FBF4F004FB1010C0B20A28B2
:102C800001D2303009E05FEA836C02D54FF0410C8D
:102C900001E04FF0610C60440A38B1FBF4F1A85434
:102CA000521C09B1202AE5D3CDF80880CDE905638F
:102CB000CDE90052CDE903474B465246594670468E
:102CC000FFF72AFF0FB000F000B830BCBDE8C08F9E
:102CD0002DE9FF4F8FB01CACDDE9239594E8030884
:102CE00020AC94E8C004002450EA010201D125F090
:102CF00010056A050DF11C0802D550EA010217D033
:102D000032463B46FDF7D0FAD2B20A2A01D230321F
:102D100006E0AB0601D5412300E061231A440A3ADC
:102D200008F80420641C50EA010201D0202CE7D3EB
:102D3000CDE90084CDF808B0CDE90595CDE9036A69
:102D40000FAF97E80F00FFF7E7FE13B000F000B8F1
:102D500030BCBDE8C08F9A4200D28854704770479B
:102D60002DE9FF4F89B005460A98002492460028B5
:102D700000D1FE4D8FE1252804D02246641C534625
:102D80000A990BE2491C4FF0000808460C910178A3
:102D90002B2919D004DC202919D0232904D119E0CA
:102DA0002D290ED0302909D00026C8B2FEF7D8FE52
:102DB000B0B10CA8FEF7BDFE06461FE048F00101C9
:102DC0000AE048F0020107E048F0040104E048F09E
:102DD000080101E048F01001401C88460C90D6E73D
:102DE0000C9908782A2809D1169840C81690002E08
:102DF00002DA48F002087642491C0C910C984FF018
:102E0000000B01782E2919D1401C0C9048F48068E1
:102E10000078FEF7A5FE20B10CA8FEF78AFE8346D7
:102E20000CE00C9A10782A2808D1169802C816903F
:102E3000002900DC0021521C8B460C920C98017872
:102E40006C290AD004DC68290FD06A2919D128E03E
:102E5000742929D07A2914D126E0401C0C900178DD
:102E600048F480786C291CD00BE0401C0C90017851
:102E700048F08008682904D148F04001401C884689
:102E80000C9002460078692822D015DC62281FD0F9
:102E90000DDC252871D050281AD058287FF46DAF4A
:102EA00016E048F40071E9E748F48071E6E763282A
:102EB00078D06428F2D10BE0732874D004DC6F283A
:102EC00006D07028EAD103E0752801D07828E5D132
:102ED00078280DD058280BD070280BD0502809D056
:102EE0006F2816D0622816D00A2128F0100016E0AC
:102EF000102107E05078102148F48878562804D132
:102F0000521C0C921078582807D01078502804D002
:102F100006E0082109E0022107E048F02000804691
:102F20001078692803D0642801D028F00C085FEAE3
:102F3000485001D528F00108107869281ED064286F
:102F40001CD0562864D05FEA885072D5169804AB1E
:102F5000C01D002283E806080292CDE9076820F030
:102F600007005346F0E80212CDE9001216902246FF
:102F700028460A99FFF7ACFE89E00AE15FEA88502B
:102F800024D5169804AFC01D20F00703F3E8020211
:102F90001693002387E80A08CDE90768002A03DAB8
:102FA000012102E080E0A6E0002100230291194601
:102FB0001B1A914101DA114603E00021404261EB06
:102FC000020153462246CDE90001D1E75FEAC8502D
:102FD00004D5169804C80FE0524215E05FEA486035
:102FE00003D5169810F8042B06E05FEA0860F0D5C8
:102FF000169830F8042B12B21690CDE9021BCDE9D9
:103000000468D00F002AE7DDCDE9002053461EE01A
:103010001698AAEB040202C816904868006800904F
:103020000A980B6801192846FFF79AFE04442FE01E
:10303000FFE75FEAC8500CD5CDE9021BCDE9046873
:1030400016980021534604C8CDE900211690224667
:1030500019E05FEA486003D5169810F8042B08E0E1
:103060005FEA0860169803D530F8042B92B200E0AE
:1030700004C816900020CDE90020CDE9021BCDE95F
:1030800004685346224628460A99FFF7DEFD0446A7
:103090000C98401C0C900C99087800287FF46BAEBB
:1030A00054457DD222467DE001275FEA887006D52F
:1030B00009E02246641C534620200A99A847384656
:1030C0007F1CB042F5D316992246641C11F8040BFC
:1030D000169153460A99A8475FEA887006D4D7E745
:1030E0002246641C534620200A99A84738467F1C74
:1030F000B042F5D3CCE7169850F8049B16904B4697
:10310000BBF1000001D0014601E04FF0FF3148461D
:1031100000E0401C02780AB1491EFAD2C71A5FEAE1
:10312000485003D558465F4500D307465FEA88708C
:1031300006D512E02246641C534620200A99A8476F
:1031400038467F1CB042F5D307E000BF224609F1A4
:103150000109641C53460A99A84799F8000040B138
:103160005FEA4851F2D5BBF1010B01E05F2D000889
:10317000ECD25FEA887006D48AE72246641C534684
:1031800020200A99A84738467F1CB042F5D37FE734
:1031900006E02246641C534625200A99A84777E793
:1031A000AAF10102534600200A99A8470DB0204613
:1031B00000F000B830BCBDE8C08F10B502004FF081
:1031C00000000CD04B1E194200D0FEE70A44521EEC
:1031D0009A43B2F5803F02D20C2A01D9104610BDA5
:1031E0000C2010BD08444A1E401E9043114200D0DE
:1031F000FEE770472DE9F0410F4601210025044606
:1032000041862E460BE01B49FDF762F910B16D1C9B
:10321000ADB202E0608E401C6086761CB6B257F8F4
:10322000260010B101780029EDD1208EA8421ED0D1
:10323000A06A002610B114F041FBA662E06A10B14A
:1032400014F03CFBE662E80014F0ACFAA06238B17E
:10325000680014F0A7FAE06218B1A16A11B102E0A7
:10326000FEE7FEE70025690014F036FC2586BDE880
:10327000F081000030FD00082DE9F84F8146407ACA
:103280000F4600F00700022819D0104680469742EA
:1032900000DD3A46164603202A4C2B4A00EB460036
:1032A00020F00305A06811681035411A636805EB2A
:1032B000010C9C4505D2416821F0004124E00846FC
:1032C000E4E79D4219D892464FF0FF3B48196168E8
:1032D000884210D9002269461C48CDF800B00AF097
:1032E0006BFF002269461A480AF066FFA168DAF807
:1032F0000000091AEAE7A068DDE7284614F052FA50
:10330000C0B1416841F0004188EA6702416089EA42
:1033100002010160416801F04041491C31F08041E7
:1033200041608681A0F80E8005D500F11001816012
:1033300000F010B8FEE7A16801F110022944826094
:10334000A160F5E748000020A80100202BC3000879
:1033500019E2000818BCBDE8E08F000070B586B027
:1033600000224A4C8DF808208DF80C208DF8102092
:10337000E2888A4201D0FF22A270E18090F83C20CE
:10338000142302F003024FF4B475012A24D0022A58
:103390005ED0A578AA4211D010F8265F05EB05157E
:1033A00005EB4505B5FBF3F52570407800EB001003
:1033B00000EB4000B0FBF3F06070A27004AA03A819
:1033C000CDE9000201EB41004FF6FF7101EA400038
:1033D00002AB627821781BE0A678B24210D0868CCE
:1033E00006EB46067602B6FBF5F5A58090F82700B9
:1033F00000EB001000EB4000B0FBF3F06070A27037
:1034000004AA03A8CDE90002C9B202AB62783AE08F
:1034100008F094FC9DF810109DF80C00CB08BDF846
:1034200000109DF8082063F30401ADF80010810836
:10343000BDF8000061F34A10D10880B261F3CF20DB
:10344000ADF8000080B20090BDF8000006B070BD7D
:10345000A678B24210D0868C06EB46067602B6FB02
:10346000F5F5A58090F8260000EB001000EB400079
:10347000B0FBF3F02070A27004AA03A8CDE900020B
:10348000CAB2217802ABA088C2E70000F400002095
:1034900010B5084C012020700748FEF726FF0028D1
:1034A000A06803D0BDE810401BF02EBBBDE8104063
:1034B0001BF01EBB800100207C08002010B50446D4
:1034C00090F84200A16B820709D4B4F840204AB1B9
:1034D000A2F57F43FF3B1BD0521EA4F84020B4F856
:1034E0004020AAB909B1820712D521461448FEF737
:1034F00066FFFFF7CDFFE16809B1204688472169E3
:1035000009B1204688472046BDE8104014F0D6B9DE
:10351000E26B52422263002911D0820702D4626B0F
:10352000524222634210521C62F3410084F842006E
:10353000A26A206A2262A062E06AE162A06310BD12
:103540007C08002070B5304D68681BF099F906467C
:10355000687880F00100687047E00020287094F8D7
:1035600042006978C0F380028A4242D061F382004F
:1035700084F84200216B8A19030719D4002917DC4B
:10358000002A15DBC00709D1616939B12046884797
:10359000216A01442162A16A0844A062A16809B1BC
:1035A0002046884794F8420040F0080084F8420022
:1035B000206B8019206316D4E16A884200DD216304
:1035C000E169204688470146606A884204D061620A
:1035D00062680AB120689047D4E90B01814202DB9E
:1035E0002046FFF76BFF287818B10848FEF77DFEEC
:1035F00003E021460548FEF78AFE0400ADD11BF02A
:1036000045F9686070BD0000800100207C08002042
:1036100009B218F0EEBC70B5044640680D4608B11A
:10362000FFF7F9FF2268002A04D029462046BDE8AA
:103630007040104770BD89B20BF0E1BD89B20BF04C
:103640001ABE2DE9FF4F99B09846DDE926B12D98B5
:1036500016468A464FF00009042811D0052811D0DB
:10366000062812D0142870D101270225002418FB47
:1036700006F00E901A98401E0D90701E069051E1B3
:103680000027F2E701270325F0E701270225FFF7CE
:10369000C5F80068D0F83890E8E7289860430BEB4D
:1036A0002022299860430AEB202110124FEA212E94
:1036B0007DD41A9B98427ADABEF1000F77DBB645CB
:1036C00075DAD2B2CBB2802A05DAC2F17F024FF0AE
:1036D000FF31520003E001215200A2F580720992ED
:1036E000802B05DAC3F17F034FF0FF325B0003E06C
:1036F00001225B00A3F580730A930EFB080C199B53
:103700000CFB053307934318119372D4DDF834C0D2
:1037100063456EDC1EEB02036BD4DDF818C0634515
:1037200067DCDDF81CC011FB05C1CDE915C112FB3A
:1037300008F101FB05C10C91D7B32D99052905D0DE
:1037400014290BD0062955D066E0EFE01598807853
:1037500007900C9881781698807810E0199A0E9945
:103760000EFB08FC02EB41010A180EFB08111CF8C5
:1037700002000790119803FB08F3085C995C079A14
:1037800091420AD00A9A11FB02F20A99C1F580739C
:10379000079911FB0321C1F30721079A90420DD02D
:1037A000099A10FB02F20998C0F5807301E02FE03E
:1037B00035E0079810FB0320C0F3072008442C993C
:1037C0004008085527D015980178407801EB002073
:1037D000ADF80C000C980178407801EB0020ADF8B2
:1037E000100016980178407801EB0020ADF8080031
:1037F00023E04CE0159801881FFA89F0814207D038
:103800000C990988814203D016990988814203D115
:103810002C990020085583E0FF210846CEE7159833
:103820000088ADF80C0016980088ADF808000888EC
:10383000ADF810002C98FF210155BDF80C00BDF823
:103840001010884209D1BDF80810884205D12B9884
:10385000BDF80C1000EB440017E00A98C2B2DDE995
:1038600003100DF099FB04900998C2B2DDE9020142
:103870000DF092FB7F22029004990DF08DFB0090D9
:103880002B98BDF8001000EB4400018048E0079B36
:1038900093F800C05B780CEB0323DDF8ACC09BB25F
:1038A0002CF81430DDF8B4C0BCF1050F06D0BCF123
:1038B000060F06D0BCF1140F09D10AE0079B9B78D4
:1038C0000FE01FFA89FC634501D1002309E0FF23C3
:1038D00007E0199B0EFB083C0E9B00EB43031CF812
:1038E000033008B9002905DBDDF834C0604503D199
:1038F000002901DD09980AE0BEF1000F01D1002A7C
:1039000004DB06998E4508D1002A06DD0A98C0F12D
:10391000FF0010FB03F0010A00E000212C98015584
:10392000641C24B22A988442FFF6B7AE1DB000F0A2
:1039300000B830BCBDE8C08F10B5818F92B004468E
:10394000A9B168460AF0D4FF0B480121CDE9004037
:10395000A08F0B9000200890CDE90901074807903F
:103960000748039068460BF069F812B010BD12B01A
:10397000BDE810401CF02CBA49FE010813EA00080B
:103980004BFE010810B50446406882080AD0496819
:1039900021F00301091D08446060204600F045F84D
:1039A000204610BDFEE74068103120F00300884239
:1039B00001D301207047002070472DE9FC470546E0
:1039C00048680C4620F0030001AA69461BF053FF2B
:1039D000DDE9007005EBC71101EB80098046D9F8DD
:1039E0003C0060B164B1C4E9020504F10806C4609A
:1039F00030460421FFF7F6FB864202D0FEE7FEE7E1
:103A0000FEE7C9F83C400120296900FA07F211439A
:103A1000296105EB870100FA08F04A6902434A610F
:103A200000F000B80CBCBDE8F08710B5044600F00B
:103A30008AF8046010BD2DE9FC4706464FF00000EF
:103A40000D0000900746019042D00C46E9460DF16A
:103A50000408802907D308461FF0E7FE411F012014
:103A60008840401E04444246494620461BF003FF5E
:103A7000009C0A2C2CDA06EB8400019A40694FF076
:103A8000FF3101FA02F210400CD1641C3069A140F0
:103A900008401DD01FF0C1FE0446009006EB8000D8
:103AA000406978B11FF0B9FE034606EBC4110190DE
:103AB00001EB8000C76B5FB1786820F00300A8427B
:103AC00001D2FEE7FEE739463046009A1CF0DDFFE2
:103AD000384600F000B80CBCBDE8F08710B50446CD
:103AE000FFF7A3FF416841F002014160606840F0C8
:103AF0000100606010BD10B5044600F024F8416874
:103B000021F002014160606820F00100606010BD9A
:103B100070B506460D46084600F015F8040010D0B2
:103B20002079C0070BD0686880080BD0214630464A
:103B300000F03CF821462846FFF724FF05462846BA
:103B400070BDFEE7FEE7426800F1080122F00300C5
:103B5000001F0844910800D1FEE7704770B5064683
:103B60000C004FF000001ED0F2B120791546C007BE
:103B70001BD011462046FFF716FF78B12946204694
:103B800000F025F805462046FFF74FFF68682946F4
:103B900040F0020068603046FFF70FFF2046FFF755
:103BA000AAFF04F1080070BDFEE7FEE77CB50546FC
:103BB00048680C4620F0030001AA69461BF05BFE32
:103BC000DDE90023214628461CF05FFF7CBD2DE97E
:103BD000F0410D46044600F10801281F0E186068E8
:103BE00006F1080720F00300401BA0F10408384646
:103BF0000421FFF7F7FA874200D0FEE7606820F063
:103C0000030108EB0500001D814200D0FEE730797A
:103C100000F0030040EA0800706020F003000C2868
:103C200000D2FEE7207900F00300284360603046B0
:103C3000FFF754FF3046BDE8F08138B5044612F076
:103C4000C9F9054612F0FBF90028204605D0218F5E
:103C5000E18616F05CFF012038BD10F067FC0028FB
:103C600020461ED010F036FB218FE08E81420CD012
:103C70002087E08E00906A461C21204610F08EFEC0
:103C80000128E9D1204616F042FF284612F0E3F958
:103C90000428E0D1204615F03BFB002111F062FB27
:103CA000D9E710F09FFCD6E770B510F073FE05461B
:103CB00015F074FB044628460CF004F90146204632
:103CC000BDE8704000221AF009B900002DE9F04F5C
:103CD0000D4687B00446002115F04DFA60B3294621
:103CE000204600F075FA2946204600F077F80021BA
:103CF000204616F053F905900021204616F0F6F9FB
:103D000004900021204616F038F8012800D0002049
:103D100080460021204616F039FB07460021204648
:103D200016F0A6F842F2D17906464F450BD1608CC9
:103D3000400508D4012707E007B0284600F046B840
:103D40001C2113F0C9BE0027204615F092FADFF8B7
:103D500078A0834620460021BAF8042016F020FA05
:103D6000D5F810C0AB682968CDF800C0CDF80C803C
:103D7000CDE90131C2B239465846059B09F03CFDF8
:103D800028834E4504D1608C800501D4012600E0D3
:103D90000026204615F053FA074620460021BAF8BF
:103DA000082016F0FDF9C2B2686900246B68E96862
:103DB0008DE81B0031463846049B09F01DFD6883E1
:103DC00007B000F008B800006800002030BCBDE873
:103DD000C04FFFF7B5BF30BCBDE8C08F2DE9F34F32
:103DE00081B00C46019808F079FF0646019815F05D
:103DF00040FA8246304600F0FBFF2061400013F09D
:103E0000FFFC20602069400013F0FAFC002541F619
:103E10009A79A0603AE036F91510DFF8208149451B
:103E200033D10027DFF818B11FE03946019815F0AB
:103E3000A2F95946009016F0CDFBA8B9009808F0F9
:103E40005FFF012810D1009808F050FFA8420BD165
:103E5000009816F06FFB4146404501DA084602E043
:103E6000009816F067FB80467F1C019815F095F9C5
:103E7000B842DAD8B8F1000F03DBA16821F8158049
:103E800003E0A168002021F815006D1C2069A842FC
:103E9000C1D800252F46284641F69B784B4615E0B1
:103EA00036F91010414504DB0D44A5F5F8559B3D4E
:103EB0000BE0994204D1A16831F81010394403E0B5
:103EC000A26822F8101039440FB2401C21698142C7
:103ED000E6D80021019816F061F82169C1F10102CC
:103EE00000FB02A0C01B00B2002800DA0020002264
:103EF0004FF0FF331146C44611E000BF36F9117090
:103F000067450BDBA7F5F8579B3F3AB210FB02F36E
:103F1000B3FBF5F3A76827F811300B46491C276956
:103F20008F42EBD8002B07DBA91A4143B1FBF5F117
:103F3000401AA16821F8130000F004B801E0FFFF67
:103F4000010006001EBCBDE8E08F00002DE9F14F26
:103F500000221146009817F087FD0021009815F007
:103F600045FF04460021009816F0CCF820440FFAD3
:103F700080F90021009815F0C9FF20440FFA80F85D
:103F8000009815F0A7FE00EB090101EB0800DFF82F
:103F900098A006B25446009815F0FFF80746002591
:103FA0002AE0009821498068006850F8250083467F
:103FB00016F010FBF8B9584616F002FE40BB00217F
:103FC000584615F0ABFE18B3012821D002281FD0A7
:103FD00003281DD00021584616F0F0F958B9BBF857
:103FE0001A10BBF81600081A401C00B24844A04240
:103FF00000DB044624B26D1CBD42D2D3544504D02C
:1040000004EB080000B2B04200DC304600F010B80B
:104010000098BBF91A10B0F91600081A411CA14209
:10402000E8DB0C46E6E7000001E0FFFF01000400CA
:1040300018BCBDE8E08F00002DE9F84F0022804653
:10404000114617F0FBFC0021404615F0CFFE044658
:104050000021404616F002F820440FFA80FA0021B1
:10406000404615F0B3FF20440FFA80F9404615F0A2
:104070003FFE00EB090101EB0A00DFF844B105B295
:104080005C46404615F089F807460021404615F089
:1040900062FE01284FF0000644D078E0D8F808000E
:1040A0004849006850F82600009016F093FAC0BB0B
:1040B000009816F085FD50B10098B8F91810B0F9C5
:1040C0001400091A481CA0422ADB4C1C28E00021DD
:1040D000009815F023FE58B1032809D0062807D010
:1040E000082805D00021009816F062F958B118E0B0
:1040F0000098B8F91810B0F91400081A411CA14230
:104100000EDB0C460CE00098143000900BF08CF99C
:104110005044A04204DB00980BF086F900EB0A043F
:1041200024B2761CBE42B9D35C453BD004EB0900F7
:1041300033E000BFD8F808002249006850F8260094
:10414000009016F047FA08BB009816F039FD60BBE6
:104150000021009815F0E2FD38B3012825D004288D
:1041600023D0072821D00021009816F027F968B93C
:104170000098143000900BF057F94844A04204DB3B
:1041800000980BF051F900EB090424B2761CBE42F2
:10419000D0D35C4506D004EB0A0000B2584501D0EC
:1041A000A84200DC284600F00FB80098B0F91810BB
:1041B000B8F91400091A481CA042E6DB4C1CE4E7DD
:1041C00001E0FFFF0100040018BCBDE8E08F000023
:1041D0002DE9F84F0C46834609F094F9064600F0A5
:1041E00007FE6061400013F00BFB606060694000F7
:1041F00013F006FB002541F69A79E0603AE036F9C3
:104200001500DFF82881484533D10027DFF820A1C9
:104210001FE03946584614F0AEFF5146009016F0A4
:10422000D9F9A8B9009809F0F9F9012810D1009836
:1042300009F0EAF9A8420BD1009815F06EF8414652
:10424000404501DA084602E0009815F066F880461D
:104250007F1C584614F0A1FFB842DAD8B8F1000F1D
:1042600003DBE16821F8158003E0E168002021F814
:1042700015006D1C6069A842C1D800252F4628464C
:1042800041F69B784B4615E036F91010414504DBAA
:104290000D44A5F5F8559B3D0BE0994204D1E1682A
:1042A00031F81010394403E0E26822F81010394464
:1042B0000FB2401C61698142E6D80021584615F0D2
:1042C00015FF8146584614F0BAFF01466069C0F1F7
:1042D000010209FB0210C01B00B2002800DA002016
:1042E00000224FF0FF331146C44610E036F911703A
:1042F00067450BDBA7F5F8579B3F3AB210FB02F37B
:10430000B3FBF5F3E76827F811300B46491C6769E2
:104310008F42EBD8002B07DBA91A4143B1FBF5F123
:10432000401AE16821F8130000F004B801E0FFFF33
:104330000100060018BCBDE8E08F1CB50B8804899D
:104340002344ADF800304B8844892344ADF8023053
:104350008B8804892344ADF80430C9884389194403
:10436000ADF806104369694698471CBD2DE9FF4F1B
:1043700089B0C8781A9CC0070D46002801D0F848BB
:1043800000E0F848069001D0F74800E0F7480490B4
:1043900001D1F54800E0F5484FF010034FF00C0E46
:1043A0004FF0080BCDF814006188A2884FF0000A86
:1043B000A1EB0201504609B25246D4F810C00FE0FA
:1043C00002EB8207E66803EB870816F808805FEACD
:1043D000C87809D00BEB8707F65B891B09B2521C22
:1043E0009445EDD8002254E00EEB8707F65B30448D
:1043F00000B2F4E7E66802EB820703EB870CB146F4
:10440000CDF820C016F80C60F60741D1002872D014
:1044100091FBF0F80EEB8706079639F8066006FB6D
:1044200008F60FFA86FCCDF800C04FF0060C0CEB36
:10443000870C042639F90C8006EB8706DDF800C0EE
:1044400039F90660E04500DCC446664504DC009EA0
:10445000C446B04500DC6646DDF800C001966645FE
:1044600006D0DDF820C04FF00108C24649F80C80A4
:10447000D4F80C80019E0BEB870728F80760D4F86E
:104480000CC0079F3CF80770C01B891B00B209B223
:10449000521C26699642ADD8BAF1000F84D1002192
:1044A000099815F064FC012826D000270020ADF8FB
:1044B0000800ADF80C0003A902A8CDE9000120898D
:1044C000B4F9022003B2287818991BF0CAFBE878E7
:1044D000384207D0099814F0CCFEBDF80810084403
:1044E000ADF808000B99099814F045FE06464FF404
:1044F000FA682AE1FFE7FEE70127D7E79C49304643
:1045000016F068F800286FD10021304615F09AFCAB
:10451000F0B34FF00009484621690FE0E26800EB74
:10452000800352F82320B24207D1E16800EB8002F9
:104530000BEB820031F9009002E0401C8142EDD883
:10454000E878C007708C04D020F4007040F48060DC
:1045500003E020F4806040F40070708406F11400E1
:10456000049982468847484528D0304616F0CFFA4D
:10457000B08AADF80000F08AADF80200308BADF8DB
:104580000400708BADF8060049465046069A00E0DC
:1045900010E090476A462921304610F0FFF9304676
:1045A00014F0FCFE3246222110F0F8F9304616F0E5
:1045B000AEFA03E0708C20F4C0607084002000909C
:1045C0006878012811D0022817D1059906F1140046
:1045D0008847B4F90010491C21F00101081A00EBCA
:1045E000D07040F34F0007E0A7E0059906F11400F2
:1045F00088472188081A00B20090E878384208D02D
:10460000049906F114008847BDF80810081AADF89F
:104610000800304600216A2215F0C2FD0FFA80F929
:10462000304600216B2215F0BBFD0FFA80FA3046B0
:1046300015F080FF0190304614F06FFE0146C9F37B
:10464000413001280FD129F4C04040450BDCB0F5C2
:104650007A7F01DDC0F57A70019A5043642290FBA5
:10466000F2F00FFA80F9CAF3413001280ED12AF492
:10467000C04040450ADCB0F57A7F01DDC0F57A70B4
:104680004843642190FBF1F00FFA80FAB18A169842
:10469000F28A411A01EB0900179900B28A1A02EB5B
:1046A0000A01EA7809B2D207002A02D0BDF908202F
:1046B00000E0009A10440FFA80FA01D0009801E05F
:1046C000BDF9080008440FFA80F95AEA09011BD025
:1046D000304616F01CFAB18A01EB0A00B082318B29
:1046E00001EB0A003083F18A01EB0900F082718B43
:1046F00001EB09007083304616F009FA00234A46A0
:104700005146304616F0AAFAE87838420CD104999E
:1047100006F11400884719990844BDF80C100844A4
:10472000BDF80810084406E0BDF80C1019980844BC
:10473000BDF80810081AADF80800E8780BAAC0F315
:104740008001099808F0A0FD0646002E04D0DDE99E
:104750000B0188427FF4D2AE0DB000F00BB8000020
:10476000B1F40008A7F400084DF40008F5F30008C0
:104770000100060030BCBDE8C08F00002DE9F04FFD
:1047800091B00E0005463FD02E83286808B113F083
:1047900095F806EB4600062101EB400013F002F805
:1047A000286040B3022101EB46010144E960042185
:1047B00001EB86010144C5E9010101210024012E1C
:1047C0001AD0F000083013F01BF8814600EB860089
:1047D00000F10408B00000B2A346ADF81000C0F12B
:1047E00001028010ADF812B00FFA82FA5C46CDF8E3
:1047F00028B00690ABE0FEE7B4220270E8680480BF
:10480000E8684180A868048011B000F00CB9002766
:10481000BDF81220BAF1000F07DC032101EB4201C1
:104820000AEB01000FFA80FA0CE0BDF81010052326
:10483000521A03EB420202EB0A00491E0FFA80FAF9
:10484000ADF81010BDF81200401CADF8120004A81D
:1048500000F0ECF868B1BDF9100006A9821041F82B
:1048600027200AA900F0030041F827007F1C042F2D
:10487000CEDB042F71D109990698884212D129F80C
:10488000140028F814B0DDE90A010144DDE90C2028
:104890001044084469680855696800010855641C9B
:1048A00024B252E00799884219D029F8140028F858
:1048B00014B06A680A9810556A6800011055641CA3
:1048C000069A20B2521E29F8102028F810B0DDE90F
:1048D0000B120A440D99091D11446A682FE00899CA
:1048E00029F81400884228F814B0DDE90A02594674
:1048F000104412D06A6810556A6800011055641C93
:10490000069A20B2521E29F8102028F81010DDE96E
:104910000C12114408316A6811E00C9A10446A685C
:1049200010556A6800011055641C069A20B2521E88
:1049300029F8102028F810100D996A680C311154CC
:104940006A6809011154401C04B20BF1010B04A860
:1049500000F06CF800287FF45AAF40F2D32016FB29
:1049600000F109EB4402881232F9022C824205D18F
:1049700008EB440232F9022C82421AD0A1EB8021CA
:10498000B1F5007F03DC494341F3CF3106E0C1F5C7
:104990008061494341F3CF31C1F10F0129F814007F
:1049A00028F8140068680155686809010155641CFD
:1049B00024B2A01E0EE000BF38F8102029F8142001
:1049C00039F8102028F8142069680A5C0A55641C1C
:1049D00024B2401E0028EFDAEA6800210846118060
:1049E0001BE0EA6822F81100AB6839F8102023F8C0
:1049F00011200AE0AE6839F9102036F811309342E0
:104A000000DA1A4626F81120401C38F910208A4294
:104A100001D1A042EEDB491C09B2A042E1DB4846CD
:104A200012F03AFFF0E630BCBDE8C08FB0F90210DA
:104A3000B0F90000814201DC01207047002070477E
:104A400017B581B0022A03D8BDF8080004B010BD24
:104A5000BDF80830BDF80400D90A01EBD0211F29A8
:104A600000D31F2161F3CF20C3F34511C0F34514D8
:104A70002144ADF804003F2900D33F2161F34A10DF
:104A800003F01F0100F01F031944ADF804001F29B3
:104A900000D31F2161F30400ADF80400FF2A07D002
:104AA000DDE901010CF05EFA0090BDF80000CDE7F1
:104AB00080B2CBE717B581B0022A03D8BDF8080051
:104AC00004B010BDBDF80400BDF80810C30ACC0A3C
:104AD00013FB04F35B0963F3CF2000F01F0301F025
:104AE0001F0413FB04F35B0963F30400C0F34513D5
:104AF000C1F3451113FB01F1890961F34A10ADF8C7
:104B00000400FF2A07D0DDE901010CF02BFA009028
:104B1000BDF80000D4E780B2D2E717B581B0022A11
:104B200003D8BDF8080004B010BDBDF80830BDF8CA
:104B30000400D90AA1EBD021002900DC002161F397
:104B4000CF20C3F34511C0F34514091BADF8040091
:104B5000002900DC002161F34A1003F01F0100F07E
:104B60001F03C91AADF80400002900DC002161F31D
:104B70000400ADF80400FF2A07D0DDE901010CF0C4
:104B8000F1F90090BDF80000CDE780B2CBE7F8B5B1
:104B900004460FF0FFFE064620460FF0BDFE054618
:104BA000304614F0FBFB04462B2D34D00A2D31D1B6
:104BB00011F010FA10B1007901282BD06946304667
:104BC00014F052FC94F82C0010F00C0F30462BD04F
:104BD00014F04FFB05460021204615F0D4F80128BB
:104BE000BDF9000005EBD5711BD000EB610090FB17
:104BF000F5F001B2002900DA0021608D4FF00102CA
:104C0000884220461BD019F069F900221C21204659
:104C10000FF0C4FEF8BD618DBDE8F840002219F028
:104C20005DB9C0EB6100E2E714F009FBBDF90210C9
:104C300000EBD07201EB620191FBF0F0D9E719F0C3
:104C40004DF9F8BD2DE9FF4F89B00446169EDDE908
:104C500019577000DDF86090DDF828A00FFA80FB8E
:104C6000B9F1040F22D0B9F1060F1FD0B9F1050F29
:104C70005CD0B9F1140F56D1B4F90000B4F90210A8
:104C8000CDF80CB006FB01030AEB43020092E28868
:104C90004FF00008511A491C0FFA81F9A188081A2F
:104CA000401C0FFA80FA4FEA4A0B81E020460AF0D6
:104CB000ADFB01460390384612F03CFFB4F900000A
:104CC000B4F90280A18806FB0802081A401C00B251
:104CD000069040000AEB420A2E4602900CE0514634
:104CE0003046029A12F026FE069808F10108DA44CE
:104CF00006EB40060FFA88F8B4F906004045EEDAF4
:104D0000B9F1060F0FD100224FF4FC60ADF800009E
:104D1000114605E035F81130834200D17A54491C20
:104D2000039B9942F6D30DB000F05FB8B4F90010C0
:104D3000B4F9023006FB031000EB400202EB0A005C
:104D4000A288511A491C0AB2B11A01EB41010EB2F4
:104D5000E188C91A491C0CB2002317E000210DE0BC
:104D600090F802C007F801C010F801CB10F8028BD0
:104D70000CEB082C25F811C0491C09B29142EFDB5D
:104D80005B1C05EB4205174430441BB2A342E5DB34
:104D9000C9E75A462846009912F0CCFD00990398BD
:104DA00005EB4A050844009008F101000FFA80F86D
:104DB000C845EEDBDDE90A014A000C9902FB01005F
:104DC000B4F90010B4F9022006FB02110D180024FA
:104DD00008E052462946384612F0ACFD641C5744A0
:104DE000354424B24C45F4DB9DE730BCBDE8C08FB0
:104DF0000146002041F6FF7200E0401C31F91030FE
:104E00009342FAD170471CB5044690F8540000F064
:104E1000010088422DD094F8540011B140F00100F7
:104E200001E020F0010084F8540004F148016846D4
:104E30000AF0D1FA606ABDF80010828A1144ADF818
:104E40000010BDF80210C08A0844ADF80200606A84
:104E5000BDF80410808A0844ADF80400606ABDF80B
:104E60000610C08A0844ADF806006946204615F0D1
:104E700071FE1CBD08B5084611460BF046FF0090B8
:104E8000BDF8000008BD2DE9F04F0746C87A89B08B
:104E900015460E46022803D8012009B000F0EFB8ED
:104EA00018463269B168FDF75FF9041EF5D0207D20
:104EB00000F01F0010F0A2FA4FF4807808B106202D
:104EC00011E0207D00F01F000E2806D014280AD023
:104ED00010F084FA30B1052005E030884FF00E095B
:104EE00030B902E00420814606E07088404503D0D6
:104EF00000204FF00509A061226A22B129463846F8
:104F00001CF0F1F9B7E0A069E0B3294602A80AF065
:104F10002CFAB6F9003013B97088404529D0A8881A
:104F200029886A88401A401C01B2E88806F1040CFE
:104F3000801A401C02B27088CDE9000C02A8FDF76F
:104F40005BF8BDF8080029880844ADF80800BDF8F2
:104F50000A1068880844ADF80A00BDF80C002988DA
:104F60000844ADF80C00BDF80E1068880844ADF890
:104F70000E0002AA04A8B968FCF712FE00287AD035
:104F800004A800E00DE0D7F80880B860CDF80090E4
:104F90002A4631463846A3690CF0CCFEC7F8088093
:104FA00069E02A4604A8B968FCF7FAFDE0B3BDF849
:104FB0001400BDF81010401A401C0FFA80FB0BEBD8
:104FC0004B0012F01DFC039004A901A8D7F808A01B
:104FD0000AF0CBF9012101A80AF065FABDF9100029
:104FE000B5F90010BDF91280401A0690B5F902001B
:104FF000A8EB000536E001AA514607A8FCF7D0FD52
:1050000070B30398009006985B4601B22AB220461E
:1050100010F0E2FD01280ED0204610F032FD03987A
:1050200012F03AFC204600E025E010F02AFD0020B6
:10503000C7F808A031E707A8B860CDF8009001AA2A
:1050400031463846039B0CF075FEBDF80600401C47
:10505000ADF80600BDF80A00401CADF80A006D1C52
:1050600008F10108BDF916004045C4DAC7F808A0E8
:10507000039812F011FC204610F003FD0CE730BC41
:10508000BDE8C08F10B504460420FCF762F9014862
:10509000046010BD1000002070B5054600244FF4D8
:1050A0007A7603E0304600F005F8641CAC42F9D390
:1050B00070BD000070B54FF0E02400226569094919
:1050C000A36909684843A1699942FCD002D2A3EBC5
:1050D000010302E0A5EB010633441A440B46824269
:1050E000F1D370BD100000202DE9F041804610483A
:1050F00017460D460078B0B1B5F902600FE000BF69
:10510000B5F9004006E03A88B1B2A0B2FCF798F9D0
:10511000641CBF1CB5F90400A042F4DA761CB5F992
:105120000600B042ECDA4046BDE8F0410CF044BB6A
:105130001802002070B5054610F04CFF0646286B9B
:1051400019F09EFB3168898B884223D295F83C0088
:105150006C6A10F0030105D06420012906D00229F1
:1051600009D106E0002060F30F0404E060F3174467
:1051700001E060F31F64304610F0F1FF214628463D
:105180000CF0EAF930B100221C2128460FF006FC91
:10519000012803D119F07AFB2863012070BD0000BB
:1051A0002DE9F04FA1B0074614468A4604A80CF03A
:1051B0009BFB4FF4A021384614F0B9FD9DF81D105B
:1051C00060F382018DF81D10A1882088091A491CFE
:1051D00009B201EBD1714E103044ADF87000608817
:1051E00000213044ADF87200384614F077FE814655
:1051F000514608A813F002FE04A810904FF40030A6
:1052000015902D48099000200A9007F13000834640
:10521000FDF784F84AE02079032843D1208BADF8CC
:105220001000208AADF812006079FD2801D94846A7
:1052300002E010FB09F0000A8DF81C002568B5F9A2
:105240002030E88B18440090D5E90512A06812F0D0
:105250008AFA8046B5F92030E88B18440090D5E9E9
:105260000512E06812F07FFA0546608B08AA304408
:10527000ADF85C001CA811901A21199438460FF063
:105280008DFBA9B21FFA88F0CDE90001BDF85C30B2
:105290001CAA04A950460CF017FB08AA1B2138468B
:1052A0000FF07CFB21465846FDF735F80400B2D1DB
:1052B00021B000F003B80000F846020830BCBDE899
:1052C000C08F00002DE9F74FC878A0B00C46022827
:1052D0007DD9114601A80AF03FF8B4F92000012851
:1052E00029DD94F82200FD2825D3208818B394F8EE
:1052F0002300BDF804104008C0F380021144ADF84B
:105300000410BDF80610C0F340000844ADF80600D4
:1053100094F82310BDF808004908C1F3C001401AF1
:10532000ADF8080094F82310BDF80A00C1F340015D
:10533000401AADF80A00209801A9826805A8FCF778
:105340002FFC002843D0E07B10F0070619D0E0883E
:10535000ADF80000BDF800006189884200D1002648
:1053600001A80DF041FA07461C210EA8FBF788F8AA
:10537000A0788DF85100BDF80000ADF840001FB1D5
:1053800005E060680090E5E7208800B9EEB3E078BA
:10539000FD2800D3FF208346BDF80800BDF80410A7
:1053A000401A401C0FFA80FABDF80A00BDF806103A
:1053B000401A401C01B289465046CA4500DB0846E7
:1053C000B4F90050B5EB600F00DB451000E043E09E
:1053D000BDF81810BDF81400081A401C0FFA80F828
:1053E0004FF0FF301D9000200790002D00DC87B1AA
:1053F000404612F005FA079000232A4601A916A894
:105400000DF062FC002116A800E01CE00DF008F889
:105410001D90BDF81400ADF80C00BDF81800ADF8F3
:1054200010000798119003A80E901390FF208DF89C
:1054300050004A465146A01D0FF01EFE040018D031
:10544000022E0CD015E001A80E90E0788DF85000E7
:105450000EA920980DF001FF23B000F008B9BDF9A6
:105460001410A06800EB4100BDF90410A0EB41004E
:105470000F90002F7DD0BDF9165027E02FB2ADF868
:105480000E70ADF8127042465946079812F0F2FAC3
:10549000BDF9141043463A4607980DF067F98DF8A8
:1054A0004800012802D102208DF84800012E08D1C1
:1054B000BDF90610A068691A00EB41000088ADF83C
:1054C00040000EA920980DF0C8FE6D1CBDF91A0011
:1054D000A842D3DAB7E000BFBDF80600BDF9161048
:1054E00038440FFA80F9BDF80A00C01B0FFA80FAA1
:1054F000494503DDBDF91A10514544DB4246594682
:10550000079812F0B7FABDF90C1043464A460798BF
:105510000DF02CF98DF84800012802D102208DF8F9
:105520004800BDF91610494513DCADF80E90ADF8F2
:105530001290012E09D1BDF90620A168A9EB020045
:1055400001EB40000088ADF840000EA920980DF056
:1055500084FEBDF91A10514515DBADF80EA0ADF86B
:1055600012A0012E0BD1BDF90600A268AAEB000023
:1055700000E009E002EB40000088ADF840000EA911
:1055800020980DF06AFE7F1CAF42A5DBBDF8040039
:10559000ADF87800BDF80800ADF87C00BDF8060055
:1055A0002844ADF87A00BDF80A00401BADF87E0033
:1055B0001EA80DF019F9074630430CD001208DF8D4
:1055C0004800BDF90A008DF850B0A0EB0509BDF9FF
:1055D0000600054435E0BDF806008DF850B02844BB
:1055E000ADF80E00BDF80A000EA9401BADF8120080
:1055F0000020119020980DF030FE24E06FB142465B
:105600005946079812F036FABDF9141043462AB2EB
:1056100007980DF0ABF88DF84800ADF80E50ADF8D6
:105620001250012E08D1BDF90600A168281A01EB1D
:1056300040000088ADF840000EA920980DF00DFE46
:105640006D1C4D45DADD079808B112F025F91D985B
:10565000401C05D01D980DF0E3FB16A80DF0A8F82E
:10566000002C3FF4F9AE20460FF0FFFCF4E630BC0E
:10567000BDE8C08F2DE9F0410646086992B0154695
:105680000C4600287DD0A07E02287AD929460EA893
:10569000B268FCF785FA002873D00EA8D6F8088007
:1056A000B060206910F085FC022806D069462069A8
:1056B00010F008FA012849D0C9E0002741F6FF7030
:1056C000CDE900700297D4E904123B4610A819F006
:1056D000FCFB284609F0AEFE01462A88BDF94000D1
:1056E00001EBD17102EB610100EBD072A1EB620121
:1056F0000844401EADF81000ADF80C10284609F023
:1057000073FE01466A88BDF9420001EBD17102EBDC
:10571000610100EBD072A1EB62010844401EADF8BC
:105720001200ADF80E1005A80CF0CAFD60690590D6
:10573000208BADF82000A07E8DF82E00009703AAE4
:1057400005A9304623690CF017FB80E005A80CF092
:10575000F9FAA0788DF82000208BADF81C00E07ECF
:105760008DF81E00A07E8DF81F00207F4FF0FF37C0
:1057700040B100996888ADF8060007EB5151084424
:105780005DE066E0284609F055FE298800EBD07000
:1057900001EB60000099C1F38A21A0EB5100ADF844
:1057A0000400284609F020FE698800EBD07001EB68
:1057B00060010098A1EB9051C0F38A22ADF8061069
:1057C000BDF80430521E1A4407EB5050ADF80820C3
:1057D0000844ADF80A0001AA05A9304623690CF077
:1057E0007DFA34E000992888C1F38A21ADF80400DD
:1057F000491E084410E001AA05A9304623690CF0AF
:105800006DFA0098BDF80410C0F38A200144ADF889
:105810000410BDF808100844ADF80800BDF90400F4
:10582000B5F904108842E6DDBDF80610009801EBDA
:105830005051ADF80610BDF80A1001EB5050ADF80C
:105840000A00BDF90600B5F906108842CADDC6F89F
:10585000088012B0BDE8F081F0B5074691F822004B
:1058600087B016460C4602286BD9208C002868D0D9
:1058700094F8230010F03E0F63D0C00761D1B088C8
:1058800031887288401A401C01B2F088B4F9005087
:10589000801A401C00B2814200DA0846B5EB600F66
:1058A00000DD4510314604A809F056FD94F82300A8
:1058B000BDF91020C0F344014807B4F9200001D419
:1058C000284440421044ADF810000807BDF91420E8
:1058D000B4F9200001D428444042101AADF8140055
:1058E00094F82300BDF9121040088007B4F9200095
:1058F00001D4284440420844ADF8120094F8230033
:10590000BDF916104008C007B4F9200001D12844A1
:105910004042081AADF81600208C281A00B2002860
:1059200000DA0020A27894F82210CDE90212E18B6F
:10593000ADF8041000902B4604AA3146384600F01A
:1059400003F807B0F0BD00002DE9FF4FA9B01D46D8
:10595000DDE93879DDF8D88016460C46FF2F00D3F4
:10596000FF2708460CF040FF2690284350EA080025
:1059700074D029982146826808A8FCF711F90028FC
:1059800073D0BDF82400BDF82010401A401C00B2AE
:1059900004901C210AA812F09FF8049811F030FF1F
:1059A0000D904FF0FF302490002D0ADD00232A4691
:1059B000214615A80DF088F9002115A80CF030FD3E
:1059C00024900123424631461BA80DF07DF90021A9
:1059D0001BA80CF025FD259001A80A900F90BDF89A
:1059E000DC008DF84070ADF830008DF84190B4F9CE
:1059F00000002290B6F900304119994200DC1946A6
:105A0000B4F904000FFA81F92190B6F90410421B91
:105A10008A4200DB0A460FFA82F8B4F902E0B6F9CE
:105A200002200EEB05009246504500DC1046B4F90A
:105A300006B007B2B6F90620ABEB0500904200DBDA
:105A4000104600B20590A8EB0900401C00B2279058
:105A5000D6450DDC01200CE000E006E00097324660
:105A60002146379B299800F0BBF92DB000F0B5B95D
:105A700000208246934501DB012000E000208346A0
:105A80002698D8B3BDF82000ADF80400BDF8240076
:105A9000ADF80800BDF9224022E000BFBAF1000FC6
:105AA00001D1A7421BDCBBF1000F02D10598A04237
:105AB0001ADB25B2ADF80650ADF80A5004990D98DE
:105AC00012F038F8BDF920102A46049B0D980CF00E
:105AD0004DFE8DF838000AA929980DF0BEFB641C14
